{
  "contractName": "Complaint",
  "abi": [
    {
      "constant": true,
      "inputs": [],
      "name": "ComplaintCount",
      "outputs": [
        {
          "name": "",
          "type": "uint256"
        }
      ],
      "payable": false,
      "stateMutability": "view",
      "type": "function",
      "signature": "0x09bab167"
    },
    {
      "constant": true,
      "inputs": [
        {
          "name": "",
          "type": "uint256"
        }
      ],
      "name": "Complaints",
      "outputs": [
        {
          "name": "complaintId",
          "type": "uint256"
        },
        {
          "name": "candidateEmail",
          "type": "bytes32"
        },
        {
          "name": "complain",
          "type": "string"
        },
        {
          "name": "status",
          "type": "string"
        }
      ],
      "payable": false,
      "stateMutability": "view",
      "type": "function",
      "signature": "0x9f2b37b0"
    },
    {
      "constant": false,
      "inputs": [
        {
          "name": "_candidateEmail",
          "type": "bytes32"
        },
        {
          "name": "_complain",
          "type": "string"
        },
        {
          "name": "_status",
          "type": "string"
        }
      ],
      "name": "addComplaint",
      "outputs": [],
      "payable": false,
      "stateMutability": "nonpayable",
      "type": "function",
      "signature": "0x1f44d54d"
    },
    {
      "constant": false,
      "inputs": [
        {
          "name": "_candidateId",
          "type": "uint256"
        },
        {
          "name": "_status",
          "type": "string"
        }
      ],
      "name": "changeStatus",
      "outputs": [],
      "payable": false,
      "stateMutability": "nonpayable",
      "type": "function",
      "signature": "0x4558593e"
    },
    {
      "constant": true,
      "inputs": [
        {
          "name": "_candidateEmail",
          "type": "bytes32"
        }
      ],
      "name": "GetCandidateComplaints",
      "outputs": [
        {
          "name": "",
          "type": "string"
        }
      ],
      "payable": false,
      "stateMutability": "view",
      "type": "function",
      "signature": "0x905e8a8f"
    }
  ],
  "bytecode": "0x608060405234801561001057600080fd5b50610dc8806100206000396000f3fe60806040526004361061006d576000357c0100000000000000000000000000000000000000000000000000000000900463ffffffff16806309bab167146100725780631f44d54d1461009d5780634558593e14610206578063905e8a8f146102d85780639f2b37b01461038c575b600080fd5b34801561007e57600080fd5b506100876104ba565b6040518082815260200191505060405180910390f35b3480156100a957600080fd5b50610204600480360360608110156100c057600080fd5b8101908080359060200190929190803590602001906401000000008111156100e757600080fd5b8201836020820111156100f957600080fd5b8035906020019184600183028401116401000000008311171561011b57600080fd5b91908080601f016020809104026020016040519081016040528093929190818152602001838380828437600081840152601f19601f8201169050808301925050505050505091929192908035906020019064010000000081111561017e57600080fd5b82018360208201111561019057600080fd5b803590602001918460018302840111640100000000831117156101b257600080fd5b91908080601f016020809104026020016040519081016040528093929190818152602001838380828437600081840152601f19601f8201169050808301925050505050505091929192905050506104c0565b005b34801561021257600080fd5b506102d66004803603604081101561022957600080fd5b81019080803590602001909291908035906020019064010000000081111561025057600080fd5b82018360208201111561026257600080fd5b8035906020019184600183028401116401000000008311171561028457600080fd5b91908080601f016020809104026020016040519081016040528093929190818152602001838380828437600081840152601f19601f820116905080830192505050505050509192919290505050610594565b005b3480156102e457600080fd5b50610311600480360360208110156102fb57600080fd5b81019080803590602001909291905050506105c3565b6040518080602001828103825283818151815260200191508051906020019080838360005b83811015610351578082015181840152602081019050610336565b50505050905090810190601f16801561037e5780820380516001836020036101000a031916815260200191505b509250505060405180910390f35b34801561039857600080fd5b506103c5600480360360208110156103af57600080fd5b8101908080359060200190929190505050610949565b604051808581526020018481526020018060200180602001838103835285818151815260200191508051906020019080838360005b838110156104155780820151818401526020810190506103fa565b50505050905090810190601f1680156104425780820380516001836020036101000a031916815260200191505b50838103825284818151815260200191508051906020019080838360005b8381101561047b578082015181840152602081019050610460565b50505050905090810190601f1680156104a85780820380516001836020036101000a031916815260200191505b50965050505050505060405180910390f35b60005481565b600080815480929190600101919050555060806040519081016040528060005481526020018481526020018381526020016040805190810160405280600781526020017f50656e64696e670000000000000000000000000000000000000000000000000081525081525060016000805481526020019081526020016000206000820151816000015560208201518160010155604082015181600201908051906020019061056e929190610c77565b50606082015181600301908051906020019061058b929190610c77565b50905050505050565b806001600084815260200190815260200160002060030190805190602001906105be929190610cf7565b505050565b6060806040805190810160405280600181526020017f5b00000000000000000000000000000000000000000000000000000000000000815250905060008090505b600054811115156108f55783600160008381526020019081526020016000206001015414156108e8576106756040805190810160405280600a81526020017f7b205374617475733a200000000000000000000000000000000000000000000081525083610aa990919063ffffffff16565b9150610738600160008381526020019081526020016000206003018054600181600116156101000203166002900480601f0160208091040260200160405190810160405280929190818152602001828054600181600116156101000203166002900480156107245780601f106106f957610100808354040283529160200191610724565b820191906000526020600020905b81548152906001019060200180831161070757829003601f168201915b505050505083610aa990919063ffffffff16565b91506107826040805190810160405280600b81526020017f2c436f6d706c61696e3a2000000000000000000000000000000000000000000081525083610aa990919063ffffffff16565b9150610845600160008381526020019081526020016000206002018054600181600116156101000203166002900480601f0160208091040260200160405190810160405280929190818152602001828054600181600116156101000203166002900480156108315780601f1061080657610100808354040283529160200191610831565b820191906000526020600020905b81548152906001019060200180831161081457829003601f168201915b505050505083610aa990919063ffffffff16565b915061088f6040805190810160405280600181526020017f7d0000000000000000000000000000000000000000000000000000000000000081525083610aa990919063ffffffff16565b9150806000541415156108e7576108e46040805190810160405280600181526020017f2c0000000000000000000000000000000000000000000000000000000000000081525083610aa990919063ffffffff16565b91505b5b8080600101915050610604565b5061093e6040805190810160405280600181526020017f5d0000000000000000000000000000000000000000000000000000000000000081525082610aa990919063ffffffff16565b905080915050919050565b6001602052806000526040600020600091509050806000015490806001015490806002018054600181600116156101000203166002900480601f016020809104026020016040519081016040528092919081815260200182805460018160011615610100020316600290048015610a015780601f106109d657610100808354040283529160200191610a01565b820191906000526020600020905b8154815290600101906020018083116109e457829003601f168201915b505050505090806003018054600181600116156101000203166002900480601f016020809104026020016040519081016040528092919081815260200182805460018160011615610100020316600290048015610a9f5780601f10610a7457610100808354040283529160200191610a9f565b820191906000526020600020905b815481529060010190602001808311610a8257829003601f168201915b5050505050905084565b6060808390506060839050606081518351016040519080825280601f01601f191660200182016040528015610aed5781602001600182028038833980820191505090505b5090506060819050600080600091505b8551821015610bb0578582815181101515610b1457fe5b9060200101517f010000000000000000000000000000000000000000000000000000000000000090047f0100000000000000000000000000000000000000000000000000000000000000028382806001019350815181101515610b7357fe5b9060200101907effffffffffffffffffffffffffffffffffffffffffffffffffffffffffffff1916908160001a9053508180600101925050610afd565b600091505b8451821015610c68578482815181101515610bcc57fe5b9060200101517f010000000000000000000000000000000000000000000000000000000000000090047f0100000000000000000000000000000000000000000000000000000000000000028382806001019350815181101515610c2b57fe5b9060200101907effffffffffffffffffffffffffffffffffffffffffffffffffffffffffffff1916908160001a9053508180600101925050610bb5565b82965050505050505092915050565b828054600181600116156101000203166002900490600052602060002090601f016020900481019282601f10610cb857805160ff1916838001178555610ce6565b82800160010185558215610ce6579182015b82811115610ce5578251825591602001919060010190610cca565b5b509050610cf39190610d77565b5090565b828054600181600116156101000203166002900490600052602060002090601f016020900481019282601f10610d3857805160ff1916838001178555610d66565b82800160010185558215610d66579182015b82811115610d65578251825591602001919060010190610d4a565b5b509050610d739190610d77565b5090565b610d9991905b80821115610d95576000816000905550600101610d7d565b5090565b9056fea165627a7a7230582027b4b9f0caec6628293efb836166a325682c49ce5af92312d16fee8ed616c1020029",
  "source": "pragma solidity ^0.5.0;\r\n\r\nimport \"./Strings.sol\";\r\n\r\ncontract Complaint {\r\n    struct ComplaintInfo { \r\n        uint complaintId;\r\n        bytes32 candidateEmail;\r\n        string complain;\r\n        string status;\r\n    }\r\n    using Strings for string;\r\n    \r\n    uint public ComplaintCount;\r\n    \r\n    mapping (uint => ComplaintInfo) public Complaints;\r\n     \r\n    function addComplaint(bytes32 _candidateEmail,string memory _complain,string memory _status) public {\r\n        ComplaintCount++;\r\n        Complaints[ComplaintCount] = ComplaintInfo(ComplaintCount,_candidateEmail,_complain,\"Pending\");\r\n    }\r\n    \r\n    function changeStatus(uint _candidateId,string memory _status) public\r\n    {\r\n        Complaints[_candidateId].status = _status; \r\n    }\r\n\r\n    function GetCandidateComplaints(bytes32 _candidateEmail) public view returns( string memory) {\r\n        string memory str = \"[\";\r\n        for(uint i=0;i<=ComplaintCount;i++)\r\n        {\r\n            if(Complaints[i].candidateEmail == _candidateEmail)\r\n            {\r\n                str = str.concat(\"{ Status: \");\r\n                str = str.concat(Complaints[i].status);\r\n                str = str.concat(\",Complain: \");\r\n                str = str.concat(Complaints[i].complain);\r\n                str = str.concat(\"}\");\r\n                if(ComplaintCount!=i)\r\n                    str = str.concat(\",\");\r\n            }\r\n        }\r\n        str = str.concat(\"]\");\r\n        return str;\r\n    }   \r\n}",
  "sourcePath": "H:/UNIVERSITY/Project/election-master/contracts/Complaint.sol",
  "compiler": {
    "name": "solc",
    "version": "0.5.0+commit.1d4f565a.Emscripten.clang"
  },
  "schemaVersion": "3.0.1",
  "updatedAt": "2019-01-09T19:33:50.007Z",
  "devdoc": {
    "methods": {}
  },
  "userdoc": {
    "methods": {}
  }
}