{
  "contractName": "DegreeInfo",
  "abi": [
    {
      "constant": true,
      "inputs": [],
      "name": "degreesCount",
      "outputs": [
        {
          "name": "",
          "type": "uint256"
        }
      ],
      "payable": false,
      "stateMutability": "view",
      "type": "function",
      "signature": "0x02966f51"
    },
    {
      "constant": true,
      "inputs": [
        {
          "name": "",
          "type": "bytes32"
        }
      ],
      "name": "degreesNo",
      "outputs": [
        {
          "name": "",
          "type": "uint256"
        }
      ],
      "payable": false,
      "stateMutability": "view",
      "type": "function",
      "signature": "0x05b82154"
    },
    {
      "constant": true,
      "inputs": [
        {
          "name": "",
          "type": "uint256"
        }
      ],
      "name": "degrees",
      "outputs": [
        {
          "name": "Id",
          "type": "uint256"
        },
        {
          "name": "degreeNo",
          "type": "bytes32"
        },
        {
          "name": "registerationNo",
          "type": "bytes32"
        },
        {
          "name": "studentName",
          "type": "bytes32"
        },
        {
          "name": "degreeType",
          "type": "bytes32"
        },
        {
          "name": "major",
          "type": "bytes32"
        },
        {
          "name": "creditHour",
          "type": "uint256"
        },
        {
          "name": "completionDate",
          "type": "bytes11"
        },
        {
          "name": "issuanceDate",
          "type": "bytes11"
        },
        {
          "name": "isDeleted",
          "type": "bool"
        }
      ],
      "payable": false,
      "stateMutability": "view",
      "type": "function",
      "signature": "0x81f1c3bc"
    },
    {
      "constant": true,
      "inputs": [],
      "name": "deletedDegreesCount",
      "outputs": [
        {
          "name": "",
          "type": "uint256"
        }
      ],
      "payable": false,
      "stateMutability": "view",
      "type": "function",
      "signature": "0x980b6d86"
    },
    {
      "inputs": [],
      "payable": false,
      "stateMutability": "nonpayable",
      "type": "constructor",
      "signature": "constructor"
    },
    {
      "constant": false,
      "inputs": [
        {
          "name": "degreeNo",
          "type": "bytes32"
        },
        {
          "name": "regNO",
          "type": "bytes32"
        },
        {
          "name": "name",
          "type": "bytes32"
        },
        {
          "name": "_type",
          "type": "bytes32"
        },
        {
          "name": "_major",
          "type": "bytes32"
        },
        {
          "name": "_creditHour",
          "type": "uint256"
        },
        {
          "name": "_completionDate",
          "type": "bytes11"
        },
        {
          "name": "_issuanceDate",
          "type": "bytes11"
        }
      ],
      "name": "addDegree",
      "outputs": [],
      "payable": false,
      "stateMutability": "nonpayable",
      "type": "function",
      "signature": "0xf357403a"
    },
    {
      "constant": false,
      "inputs": [
        {
          "name": "Id",
          "type": "uint256"
        },
        {
          "name": "degreeNo",
          "type": "bytes32"
        },
        {
          "name": "regNO",
          "type": "bytes32"
        },
        {
          "name": "name",
          "type": "bytes32"
        },
        {
          "name": "_type",
          "type": "bytes32"
        },
        {
          "name": "_major",
          "type": "bytes32"
        },
        {
          "name": "_creditHour",
          "type": "uint256"
        },
        {
          "name": "_completionDate",
          "type": "bytes11"
        },
        {
          "name": "_issuanceDate",
          "type": "bytes11"
        }
      ],
      "name": "editDegree",
      "outputs": [],
      "payable": false,
      "stateMutability": "nonpayable",
      "type": "function",
      "signature": "0x8d080068"
    },
    {
      "constant": false,
      "inputs": [
        {
          "name": "Id",
          "type": "uint256"
        }
      ],
      "name": "deleteDegree",
      "outputs": [],
      "payable": false,
      "stateMutability": "nonpayable",
      "type": "function",
      "signature": "0x9980572e"
    }
  ],
  "bytecode": "0x60806040523480156200001157600080fd5b50620000f47f31362d33383130000000000000000000000000000000000000000000000000007f3132462d383031320000000000000000000000000000000000000000000000007f416c6900000000000000000000000000000000000000000000000000000000007f4d530000000000000000000000000000000000000000000000000000000000007f435300000000000000000000000000000000000000000000000000000000000060827f30332f31312f3230313400000000000000000000000000000000000000000000806200170c640100000000026401000000009004565b620001d67f31362d33383131000000000000000000000000000000000000000000000000007f3132462d383031320000000000000000000000000000000000000000000000007f416c6900000000000000000000000000000000000000000000000000000000007f4d530000000000000000000000000000000000000000000000000000000000007f435300000000000000000000000000000000000000000000000000000000000060827f30332f31312f3230313400000000000000000000000000000000000000000000806200170c640100000000026401000000009004565b620002b87f31362d33383132000000000000000000000000000000000000000000000000007f3132462d383031320000000000000000000000000000000000000000000000007f416c6900000000000000000000000000000000000000000000000000000000007f4d530000000000000000000000000000000000000000000000000000000000007f435300000000000000000000000000000000000000000000000000000000000060827f30332f31312f3230313400000000000000000000000000000000000000000000806200170c640100000000026401000000009004565b6200039a7f31362d33383133000000000000000000000000000000000000000000000000007f3132462d383031320000000000000000000000000000000000000000000000007f416c6900000000000000000000000000000000000000000000000000000000007f4d530000000000000000000000000000000000000000000000000000000000007f435300000000000000000000000000000000000000000000000000000000000060827f30332f31312f3230313400000000000000000000000000000000000000000000806200170c640100000000026401000000009004565b6200047c7f31362d33383134000000000000000000000000000000000000000000000000007f3132462d383031320000000000000000000000000000000000000000000000007f416c6900000000000000000000000000000000000000000000000000000000007f4d530000000000000000000000000000000000000000000000000000000000007f435300000000000000000000000000000000000000000000000000000000000060827f30332f31312f3230313400000000000000000000000000000000000000000000806200170c640100000000026401000000009004565b6200055e7f31362d33383135000000000000000000000000000000000000000000000000007f3132462d383031320000000000000000000000000000000000000000000000007f416c6900000000000000000000000000000000000000000000000000000000007f4d530000000000000000000000000000000000000000000000000000000000007f435300000000000000000000000000000000000000000000000000000000000060827f30332f31312f3230313400000000000000000000000000000000000000000000806200170c640100000000026401000000009004565b620006407f31362d33383136000000000000000000000000000000000000000000000000007f3132462d383031320000000000000000000000000000000000000000000000007f416c6900000000000000000000000000000000000000000000000000000000007f4d530000000000000000000000000000000000000000000000000000000000007f435300000000000000000000000000000000000000000000000000000000000060827f30332f31312f3230313400000000000000000000000000000000000000000000806200170c640100000000026401000000009004565b620007227f31362d33383137000000000000000000000000000000000000000000000000007f3132462d383031320000000000000000000000000000000000000000000000007f416c6900000000000000000000000000000000000000000000000000000000007f4d530000000000000000000000000000000000000000000000000000000000007f435300000000000000000000000000000000000000000000000000000000000060827f30332f31312f3230313400000000000000000000000000000000000000000000806200170c640100000000026401000000009004565b620008047f31362d33383138000000000000000000000000000000000000000000000000007f3132462d383031320000000000000000000000000000000000000000000000007f416c6900000000000000000000000000000000000000000000000000000000007f4d530000000000000000000000000000000000000000000000000000000000007f435300000000000000000000000000000000000000000000000000000000000060827f30332f31312f3230313400000000000000000000000000000000000000000000806200170c640100000000026401000000009004565b620008e67f31362d33383139000000000000000000000000000000000000000000000000007f3132462d383031320000000000000000000000000000000000000000000000007f416c6900000000000000000000000000000000000000000000000000000000007f4d530000000000000000000000000000000000000000000000000000000000007f435300000000000000000000000000000000000000000000000000000000000060827f30332f31312f3230313400000000000000000000000000000000000000000000806200170c640100000000026401000000009004565b620009c87f31362d33383230000000000000000000000000000000000000000000000000007f3132462d383031320000000000000000000000000000000000000000000000007f416c6900000000000000000000000000000000000000000000000000000000007f4d530000000000000000000000000000000000000000000000000000000000007f435300000000000000000000000000000000000000000000000000000000000060827f30332f31312f3230313400000000000000000000000000000000000000000000806200170c640100000000026401000000009004565b62000aaa7f31362d33383231000000000000000000000000000000000000000000000000007f3132462d383031320000000000000000000000000000000000000000000000007f416c6900000000000000000000000000000000000000000000000000000000007f4d530000000000000000000000000000000000000000000000000000000000007f435300000000000000000000000000000000000000000000000000000000000060827f30332f31312f3230313400000000000000000000000000000000000000000000806200170c640100000000026401000000009004565b62000b8c7f31362d33383232000000000000000000000000000000000000000000000000007f3132462d383031320000000000000000000000000000000000000000000000007f416c6900000000000000000000000000000000000000000000000000000000007f4d530000000000000000000000000000000000000000000000000000000000007f435300000000000000000000000000000000000000000000000000000000000060827f30332f31312f3230313400000000000000000000000000000000000000000000806200170c640100000000026401000000009004565b62000c6e7f31362d33383233000000000000000000000000000000000000000000000000007f3132462d383031320000000000000000000000000000000000000000000000007f416c6900000000000000000000000000000000000000000000000000000000007f4d530000000000000000000000000000000000000000000000000000000000007f435300000000000000000000000000000000000000000000000000000000000060827f30332f31312f3230313400000000000000000000000000000000000000000000806200170c640100000000026401000000009004565b62000d507f31362d33383234000000000000000000000000000000000000000000000000007f3132462d383031320000000000000000000000000000000000000000000000007f416c6900000000000000000000000000000000000000000000000000000000007f4d530000000000000000000000000000000000000000000000000000000000007f435300000000000000000000000000000000000000000000000000000000000060827f30332f31312f3230313400000000000000000000000000000000000000000000806200170c640100000000026401000000009004565b62000e327f31362d33383235000000000000000000000000000000000000000000000000007f3132462d383031320000000000000000000000000000000000000000000000007f416c6900000000000000000000000000000000000000000000000000000000007f4d530000000000000000000000000000000000000000000000000000000000007f435300000000000000000000000000000000000000000000000000000000000060827f30332f31312f3230313400000000000000000000000000000000000000000000806200170c640100000000026401000000009004565b62000f147f31362d33383236000000000000000000000000000000000000000000000000007f3132462d383031320000000000000000000000000000000000000000000000007f416c6900000000000000000000000000000000000000000000000000000000007f4d530000000000000000000000000000000000000000000000000000000000007f435300000000000000000000000000000000000000000000000000000000000060827f30332f31312f3230313400000000000000000000000000000000000000000000806200170c640100000000026401000000009004565b62000ff67f31362d33383237000000000000000000000000000000000000000000000000007f3132462d383031320000000000000000000000000000000000000000000000007f416c6900000000000000000000000000000000000000000000000000000000007f4d530000000000000000000000000000000000000000000000000000000000007f435300000000000000000000000000000000000000000000000000000000000060827f30332f31312f3230313400000000000000000000000000000000000000000000806200170c640100000000026401000000009004565b620010d87f31362d33383238000000000000000000000000000000000000000000000000007f3132462d383031320000000000000000000000000000000000000000000000007f416c6900000000000000000000000000000000000000000000000000000000007f4d530000000000000000000000000000000000000000000000000000000000007f435300000000000000000000000000000000000000000000000000000000000060827f30332f31312f3230313400000000000000000000000000000000000000000000806200170c640100000000026401000000009004565b620011ba7f31362d33383239000000000000000000000000000000000000000000000000007f3132462d383031320000000000000000000000000000000000000000000000007f416c6900000000000000000000000000000000000000000000000000000000007f4d530000000000000000000000000000000000000000000000000000000000007f435300000000000000000000000000000000000000000000000000000000000060827f30332f31312f3230313400000000000000000000000000000000000000000000806200170c640100000000026401000000009004565b6200129c7f31362d33383330000000000000000000000000000000000000000000000000007f3132462d383031320000000000000000000000000000000000000000000000007f416c6900000000000000000000000000000000000000000000000000000000007f4d530000000000000000000000000000000000000000000000000000000000007f435300000000000000000000000000000000000000000000000000000000000060827f30332f31312f3230313400000000000000000000000000000000000000000000806200170c640100000000026401000000009004565b6200137e7f31362d33383331000000000000000000000000000000000000000000000000007f3132462d383031320000000000000000000000000000000000000000000000007f416c6900000000000000000000000000000000000000000000000000000000007f4d530000000000000000000000000000000000000000000000000000000000007f435300000000000000000000000000000000000000000000000000000000000060827f30332f31312f3230313400000000000000000000000000000000000000000000806200170c640100000000026401000000009004565b620014607f31362d33383332000000000000000000000000000000000000000000000000007f3132462d383031320000000000000000000000000000000000000000000000007f416c6900000000000000000000000000000000000000000000000000000000007f4d530000000000000000000000000000000000000000000000000000000000007f435300000000000000000000000000000000000000000000000000000000000060827f30332f31312f3230313400000000000000000000000000000000000000000000806200170c640100000000026401000000009004565b620015427f31362d33383333000000000000000000000000000000000000000000000000007f3132462d383031320000000000000000000000000000000000000000000000007f416c6900000000000000000000000000000000000000000000000000000000007f4d530000000000000000000000000000000000000000000000000000000000007f435300000000000000000000000000000000000000000000000000000000000060827f30332f31312f3230313400000000000000000000000000000000000000000000806200170c640100000000026401000000009004565b620016247f31362d33383334000000000000000000000000000000000000000000000000007f3132462d383031320000000000000000000000000000000000000000000000007f416c6900000000000000000000000000000000000000000000000000000000007f4d530000000000000000000000000000000000000000000000000000000000007f435300000000000000000000000000000000000000000000000000000000000060827f30332f31312f3230313400000000000000000000000000000000000000000000806200170c640100000000026401000000009004565b620017067f31362d33383335000000000000000000000000000000000000000000000000007f3132462d383031320000000000000000000000000000000000000000000000007f416c6900000000000000000000000000000000000000000000000000000000007f4d530000000000000000000000000000000000000000000000000000000000007f435300000000000000000000000000000000000000000000000000000000000060827f30332f31312f3230313400000000000000000000000000000000000000000000806200170c640100000000026401000000009004565b620018bf565b6002600081548092919060010191905055506101406040519081016040528060025481526020018981526020018881526020018781526020018681526020018581526020018481526020018374ffffffffffffffffffffffffffffffffffffffffff191681526020018274ffffffffffffffffffffffffffffffffffffffffff19168152602001600015158152506000806002548152602001908152602001600020600082015181600001556020820151816001015560408201518160020155606082015181600301556080820151816004015560a0820151816005015560c0820151816006015560e08201518160070160006101000a8154816affffffffffffffffffffff021916908375010000000000000000000000000000000000000000009004021790555061010082015181600701600b6101000a8154816affffffffffffffffffffff02191690837501000000000000000000000000000000000000000000900402179055506101208201518160070160166101000a81548160ff021916908315150217905550905050600254600160008a8152602001908152602001600020819055505050505050505050565b61083780620018cf6000396000f3fe608060405260043610610083576000357c0100000000000000000000000000000000000000000000000000000000900463ffffffff16806302966f511461008857806305b82154146100b357806381f1c3bc146101025780638d080068146101f4578063980b6d86146102b05780639980572e146102db578063f357403a14610316575b600080fd5b34801561009457600080fd5b5061009d6103c8565b6040518082815260200191505060405180910390f35b3480156100bf57600080fd5b506100ec600480360360208110156100d657600080fd5b81019080803590602001909291905050506103ce565b6040518082815260200191505060405180910390f35b34801561010e57600080fd5b5061013b6004803603602081101561012557600080fd5b81019080803590602001909291905050506103e6565b604051808b81526020018a81526020018981526020018881526020018781526020018681526020018581526020018474ffffffffffffffffffffffffffffffffffffffffff191674ffffffffffffffffffffffffffffffffffffffffff191681526020018374ffffffffffffffffffffffffffffffffffffffffff191674ffffffffffffffffffffffffffffffffffffffffff19168152602001821515151581526020019a505050505050505050505060405180910390f35b34801561020057600080fd5b506102ae600480360361012081101561021857600080fd5b8101908080359060200190929190803590602001909291908035906020019092919080359060200190929190803590602001909291908035906020019092919080359060200190929190803574ffffffffffffffffffffffffffffffffffffffffff19169060200190929190803574ffffffffffffffffffffffffffffffffffffffffff1916906020019092919050505061048b565b005b3480156102bc57600080fd5b506102c561060f565b6040518082815260200191505060405180910390f35b3480156102e757600080fd5b50610314600480360360208110156102fe57600080fd5b8101908080359060200190929190505050610615565b005b34801561032257600080fd5b506103c6600480360361010081101561033a57600080fd5b81019080803590602001909291908035906020019092919080359060200190929190803590602001909291908035906020019092919080359060200190929190803574ffffffffffffffffffffffffffffffffffffffffff19169060200190929190803574ffffffffffffffffffffffffffffffffffffffffff19169060200190929190505050610658565b005b60025481565b60016020528060005260406000206000915090505481565b60006020528060005260406000206000915090508060000154908060010154908060020154908060030154908060040154908060050154908060060154908060070160009054906101000a90047501000000000000000000000000000000000000000000029080600701600b9054906101000a9004750100000000000000000000000000000000000000000002908060070160169054906101000a900460ff1690508a565b610140604051908101604052808a81526020018981526020018881526020018781526020018681526020018581526020018481526020018374ffffffffffffffffffffffffffffffffffffffffff191681526020018274ffffffffffffffffffffffffffffffffffffffffff19168152602001600015158152506000808b8152602001908152602001600020600082015181600001556020820151816001015560408201518160020155606082015181600301556080820151816004015560a0820151816005015560c0820151816006015560e08201518160070160006101000a8154816affffffffffffffffffffff021916908375010000000000000000000000000000000000000000009004021790555061010082015181600701600b6101000a8154816affffffffffffffffffffff02191690837501000000000000000000000000000000000000000000900402179055506101208201518160070160166101000a81548160ff021916908315150217905550905050505050505050505050565b60035481565b600360008154809291906001019190505550600160008083815260200190815260200160002060070160166101000a81548160ff02191690831515021790555050565b6002600081548092919060010191905055506101406040519081016040528060025481526020018981526020018881526020018781526020018681526020018581526020018481526020018374ffffffffffffffffffffffffffffffffffffffffff191681526020018274ffffffffffffffffffffffffffffffffffffffffff19168152602001600015158152506000806002548152602001908152602001600020600082015181600001556020820151816001015560408201518160020155606082015181600301556080820151816004015560a0820151816005015560c0820151816006015560e08201518160070160006101000a8154816affffffffffffffffffffff021916908375010000000000000000000000000000000000000000009004021790555061010082015181600701600b6101000a8154816affffffffffffffffffffff02191690837501000000000000000000000000000000000000000000900402179055506101208201518160070160166101000a81548160ff021916908315150217905550905050600254600160008a815260200190815260200160002081905550505050505050505056fea165627a7a723058208b54fdfaf14a79c72ce3bcab7f05685c8a9455f977b03686ee04d5bd2e116f5e0029",
  "source": "pragma solidity >= 0.5.0;\n\ncontract DegreeInfo {\n    // Model a Degree\n    struct Degree {\n        uint Id;\n        bytes32 degreeNo;\n        bytes32 registerationNo;\n        bytes32 studentName;\n        bytes32 degreeType;\n        bytes32 major;\n        uint creditHour;\n        bytes11 completionDate;\n        bytes11 issuanceDate;\n        bool isDeleted;\n    }\n    mapping(uint => Degree) public degrees;\n    mapping(bytes32 => uint) public degreesNo;\n\n    uint public degreesCount;\n    uint public deletedDegreesCount;\n\n    constructor () public {\n        \n        addDegree (\"16-3810\",\"12F-8012\",\"Ali\",\"MS\",\"CS\",130,\"03/11/2014\",\"03/11/2014\");\n        addDegree (\"16-3811\",\"12F-8012\",\"Ali\",\"MS\",\"CS\",130,\"03/11/2014\",\"03/11/2014\");\n        addDegree (\"16-3812\",\"12F-8012\",\"Ali\",\"MS\",\"CS\",130,\"03/11/2014\",\"03/11/2014\");\n        addDegree (\"16-3813\",\"12F-8012\",\"Ali\",\"MS\",\"CS\",130,\"03/11/2014\",\"03/11/2014\");\n        addDegree (\"16-3814\",\"12F-8012\",\"Ali\",\"MS\",\"CS\",130,\"03/11/2014\",\"03/11/2014\");\n        addDegree (\"16-3815\",\"12F-8012\",\"Ali\",\"MS\",\"CS\",130,\"03/11/2014\",\"03/11/2014\");\n        addDegree (\"16-3816\",\"12F-8012\",\"Ali\",\"MS\",\"CS\",130,\"03/11/2014\",\"03/11/2014\");\n        addDegree (\"16-3817\",\"12F-8012\",\"Ali\",\"MS\",\"CS\",130,\"03/11/2014\",\"03/11/2014\");\n        addDegree (\"16-3818\",\"12F-8012\",\"Ali\",\"MS\",\"CS\",130,\"03/11/2014\",\"03/11/2014\");\n        addDegree (\"16-3819\",\"12F-8012\",\"Ali\",\"MS\",\"CS\",130,\"03/11/2014\",\"03/11/2014\");\n        addDegree (\"16-3820\",\"12F-8012\",\"Ali\",\"MS\",\"CS\",130,\"03/11/2014\",\"03/11/2014\");\n        addDegree (\"16-3821\",\"12F-8012\",\"Ali\",\"MS\",\"CS\",130,\"03/11/2014\",\"03/11/2014\");\n        addDegree (\"16-3822\",\"12F-8012\",\"Ali\",\"MS\",\"CS\",130,\"03/11/2014\",\"03/11/2014\");\n        addDegree (\"16-3823\",\"12F-8012\",\"Ali\",\"MS\",\"CS\",130,\"03/11/2014\",\"03/11/2014\");\n        addDegree (\"16-3824\",\"12F-8012\",\"Ali\",\"MS\",\"CS\",130,\"03/11/2014\",\"03/11/2014\");\n        addDegree (\"16-3825\",\"12F-8012\",\"Ali\",\"MS\",\"CS\",130,\"03/11/2014\",\"03/11/2014\");\n        addDegree (\"16-3826\",\"12F-8012\",\"Ali\",\"MS\",\"CS\",130,\"03/11/2014\",\"03/11/2014\");\n        addDegree (\"16-3827\",\"12F-8012\",\"Ali\",\"MS\",\"CS\",130,\"03/11/2014\",\"03/11/2014\");\n        addDegree (\"16-3828\",\"12F-8012\",\"Ali\",\"MS\",\"CS\",130,\"03/11/2014\",\"03/11/2014\");\n        addDegree (\"16-3829\",\"12F-8012\",\"Ali\",\"MS\",\"CS\",130,\"03/11/2014\",\"03/11/2014\");\n        addDegree (\"16-3830\",\"12F-8012\",\"Ali\",\"MS\",\"CS\",130,\"03/11/2014\",\"03/11/2014\");\n        addDegree (\"16-3831\",\"12F-8012\",\"Ali\",\"MS\",\"CS\",130,\"03/11/2014\",\"03/11/2014\");\n        addDegree (\"16-3832\",\"12F-8012\",\"Ali\",\"MS\",\"CS\",130,\"03/11/2014\",\"03/11/2014\");\n        addDegree (\"16-3833\",\"12F-8012\",\"Ali\",\"MS\",\"CS\",130,\"03/11/2014\",\"03/11/2014\");\n        addDegree (\"16-3834\",\"12F-8012\",\"Ali\",\"MS\",\"CS\",130,\"03/11/2014\",\"03/11/2014\");\n        addDegree (\"16-3835\",\"12F-8012\",\"Ali\",\"MS\",\"CS\",130,\"03/11/2014\",\"03/11/2014\"); \n    }\n    \n    function addDegree (bytes32 degreeNo,bytes32 regNO,bytes32 name,bytes32 _type,bytes32 _major,uint _creditHour,bytes11 _completionDate,bytes11 _issuanceDate) public {\n        degreesCount++;\n        degrees[degreesCount] = Degree(degreesCount,degreeNo,regNO,name,_type,_major,_creditHour,_completionDate,_issuanceDate,false);\n        degreesNo[degreeNo] = degreesCount;\n    }\n\n    function editDegree (uint Id,bytes32 degreeNo,bytes32 regNO,bytes32 name,bytes32 _type,bytes32 _major,uint _creditHour,bytes11 _completionDate,bytes11 _issuanceDate) public {\n        degrees[Id] = Degree(Id,degreeNo,regNO,name,_type,_major,_creditHour,_completionDate,_issuanceDate,false);\n    }\n\n    function deleteDegree (uint Id) public {\n        deletedDegreesCount++;\n        degrees[Id].isDeleted = true;\n    }\n\n}",
  "sourcePath": "C:/Users/f1580/Documents/Visual Studio 2015/Projects/WebApplication1/WebApplication1/contracts/Degree.sol",
  "compiler": {
    "name": "solc",
    "version": "0.5.0+commit.1d4f565a.Emscripten.clang"
  },
  "schemaVersion": "3.0.1",
  "updatedAt": "2019-01-09T19:33:47.533Z",
  "devdoc": {
    "methods": {}
  },
  "userdoc": {
    "methods": {}
  }
}