{
  "contractName": "User",
  "abi": [
    {
      "constant": true,
      "inputs": [
        {
          "name": "",
          "type": "bytes32"
        }
      ],
      "name": "Users",
      "outputs": [
        {
          "name": "name",
          "type": "bytes32"
        },
        {
          "name": "email",
          "type": "bytes32"
        },
        {
          "name": "contactNo",
          "type": "bytes32"
        },
        {
          "name": "cnic",
          "type": "bytes13"
        },
        {
          "name": "gender",
          "type": "bytes6"
        },
        {
          "name": "password",
          "type": "bytes32"
        },
        {
          "name": "userType",
          "type": "bytes9"
        }
      ],
      "payable": false,
      "stateMutability": "view",
      "type": "function",
      "signature": "0x8da0c6e3"
    },
    {
      "constant": false,
      "inputs": [
        {
          "name": "_name",
          "type": "bytes32"
        },
        {
          "name": "_email",
          "type": "bytes32"
        },
        {
          "name": "_contactNo",
          "type": "bytes32"
        },
        {
          "name": "_cnic",
          "type": "bytes13"
        },
        {
          "name": "_gender",
          "type": "bytes6"
        },
        {
          "name": "_password",
          "type": "bytes9"
        }
      ],
      "name": "registerUser",
      "outputs": [],
      "payable": false,
      "stateMutability": "nonpayable",
      "type": "function",
      "signature": "0xdc529842"
    },
    {
      "constant": true,
      "inputs": [
        {
          "name": "_email",
          "type": "bytes32"
        },
        {
          "name": "_password",
          "type": "bytes32"
        }
      ],
      "name": "userLogin",
      "outputs": [
        {
          "name": "",
          "type": "bytes9"
        }
      ],
      "payable": false,
      "stateMutability": "view",
      "type": "function",
      "signature": "0x5567986a"
    }
  ],
  "bytecode": "0x608060405234801561001057600080fd5b506105fc806100206000396000f3fe608060405260043610610057576000357c0100000000000000000000000000000000000000000000000000000000900463ffffffff1680635567986a1461005c5780638da0c6e3146100e9578063dc529842146101fc575b600080fd5b34801561006857600080fd5b5061009f6004803603604081101561007f57600080fd5b8101908080359060200190929190803590602001909291905050506102b6565b604051808276ffffffffffffffffffffffffffffffffffffffffffffff191676ffffffffffffffffffffffffffffffffffffffffffffff1916815260200191505060405180910390f35b3480156100f557600080fd5b506101226004803603602081101561010c57600080fd5b8101908080359060200190929190505050610360565b604051808881526020018781526020018681526020018572ffffffffffffffffffffffffffffffffffffff191672ffffffffffffffffffffffffffffffffffffff191681526020018479ffffffffffffffffffffffffffffffffffffffffffffffffffff191679ffffffffffffffffffffffffffffffffffffffffffffffffffff191681526020018381526020018276ffffffffffffffffffffffffffffffffffffffffffffff191676ffffffffffffffffffffffffffffffffffffffffffffff1916815260200197505050505050505060405180910390f35b34801561020857600080fd5b506102b4600480360360c081101561021f57600080fd5b81019080803590602001909291908035906020019092919080359060200190929190803572ffffffffffffffffffffffffffffffffffffff19169060200190929190803579ffffffffffffffffffffffffffffffffffffffffffffffffffff19169060200190929190803576ffffffffffffffffffffffffffffffffffffffffffffff1916906020019092919050505061040d565b005b600082600080858152602001908152602001600020600101541480156102f057508160008085815260200190815260200160002060040154145b156103365760008084815260200190815260200160002060050160009054906101000a90047701000000000000000000000000000000000000000000000002905061035a565b7f57726f6e6700000000000000000000000000000000000000000000000000000090505b92915050565b60006020528060005260406000206000915090508060000154908060010154908060020154908060030160009054906101000a9004730100000000000000000000000000000000000000029080600301600d9054906101000a90047a01000000000000000000000000000000000000000000000000000002908060040154908060050160009054906101000a90047701000000000000000000000000000000000000000000000002905087565b60e0604051908101604052808781526020018681526020018581526020018472ffffffffffffffffffffffffffffffffffffff191681526020018379ffffffffffffffffffffffffffffffffffffffffffffffffffff191681526020018276ffffffffffffffffffffffffffffffffffffffffffffff191681526020017f43616e646964617465000000000000000000000000000000000000000000000076ffffffffffffffffffffffffffffffffffffffffffffff191681525060008087815260200190815260200160002060008201518160000155602082015181600101556040820151816002015560608201518160030160006101000a8154816cffffffffffffffffffffffffff021916908373010000000000000000000000000000000000000090040217905550608082015181600301600d6101000a81548165ffffffffffff02191690837a0100000000000000000000000000000000000000000000000000009004021790555060a0820151816004015560c08201518160050160006101000a81548168ffffffffffffffffff0219169083770100000000000000000000000000000000000000000000009004021790555090505050505050505056fea165627a7a72305820a153a43299a4d20e00d43230a9f8eb3250cb1fe764d38e6573d25da50edd07c50029",
  "source": "pragma solidity >=0.5.0;\r\n\r\ncontract User {\r\n    struct userInfo{\r\n        bytes32 name;\r\n        bytes32 email;\r\n        bytes32 contactNo;\r\n        bytes13 cnic;\r\n        bytes6 gender;\r\n        bytes32 password;\r\n        bytes9 userType; \r\n    }\r\n\r\n    mapping (bytes32 => userInfo) public Users;\r\n\r\n    function registerUser(bytes32 _name,bytes32 _email,bytes32 _contactNo,bytes13 _cnic,bytes6 _gender,bytes9 _password) public{\r\n        Users[_email] = userInfo(_name,_email,_contactNo,_cnic,_gender,_password,\"Candidate\");\r\n    }\r\n\r\n    function userLogin(bytes32 _email,bytes32 _password) public view returns(bytes9) {\r\n        if(Users[_email].email == _email && Users[_email].password == _password)\r\n        {\r\n            return Users[_email].userType;\r\n        }\r\n        else\r\n        {   \r\n            return \"Wrong\";\r\n        }\r\n    }\r\n}",
  "sourcePath": "C:\\Users\\f1580\\Documents\\Visual Studio 2015\\Projects\\WebApplication1\\WebApplication1\\contracts\\User.sol",
  "compiler": {
    "name": "solc",
    "version": "0.5.0+commit.1d4f565a.Emscripten.clang"
  },
  "schemaVersion": "3.0.1",
  "updatedAt": "2019-01-09T19:33:48.271Z",
  "devdoc": {
    "methods": {}
  },
  "userdoc": {
    "methods": {}
  }
}